{
  "contractName": "ExerciceSolution",
  "abi": [
    {
      "inputs": [
        {
          "internalType": "contract NFT_td9",
          "name": "_nft",
          "type": "address"
        }
      ],
      "stateMutability": "nonpayable",
      "type": "constructor"
    },
    {
      "inputs": [
        {
          "internalType": "address",
          "name": "",
          "type": "address"
        }
      ],
      "name": "whitelisted",
      "outputs": [
        {
          "internalType": "bool",
          "name": "",
          "type": "bool"
        }
      ],
      "stateMutability": "view",
      "type": "function",
      "constant": true
    },
    {
      "inputs": [],
      "name": "ERC721Address",
      "outputs": [
        {
          "internalType": "address",
          "name": "",
          "type": "address"
        }
      ],
      "stateMutability": "nonpayable",
      "type": "function"
    },
    {
      "inputs": [],
      "name": "mintATokenForMe",
      "outputs": [
        {
          "internalType": "uint256",
          "name": "",
          "type": "uint256"
        }
      ],
      "stateMutability": "nonpayable",
      "type": "function"
    },
    {
      "inputs": [
        {
          "internalType": "address",
          "name": "_signer",
          "type": "address"
        }
      ],
      "name": "whitelist",
      "outputs": [
        {
          "internalType": "bool",
          "name": "",
          "type": "bool"
        }
      ],
      "stateMutability": "nonpayable",
      "type": "function"
    },
    {
      "inputs": [
        {
          "internalType": "bytes32",
          "name": "_hash",
          "type": "bytes32"
        },
        {
          "internalType": "bytes",
          "name": "_signature",
          "type": "bytes"
        }
      ],
      "name": "signerIsWhitelisted",
      "outputs": [
        {
          "internalType": "bool",
          "name": "",
          "type": "bool"
        }
      ],
      "stateMutability": "nonpayable",
      "type": "function"
    },
    {
      "inputs": [
        {
          "internalType": "bytes32",
          "name": "_hash",
          "type": "bytes32"
        },
        {
          "internalType": "bytes",
          "name": "_signature",
          "type": "bytes"
        }
      ],
      "name": "getAddressFromSignature",
      "outputs": [
        {
          "internalType": "address",
          "name": "",
          "type": "address"
        }
      ],
      "stateMutability": "nonpayable",
      "type": "function"
    }
  ],
  "bytecode": "0x608060405234801561001057600080fd5b506040516107a13803806107a18339818101604052602081101561003357600080fd5b810190808051906020019092919050505080600160006101000a81548173ffffffffffffffffffffffffffffffffffffffff021916908373ffffffffffffffffffffffffffffffffffffffff16021790555060016000803373ffffffffffffffffffffffffffffffffffffffff1673ffffffffffffffffffffffffffffffffffffffff16815260200190815260200160002060006101000a81548160ff021916908315150217905550506106b5806100ec6000396000f3fe608060405234801561001057600080fd5b50600436106100625760003560e01c8063574490cd1461006757806379d33606146100b15780637d851a13146101b65780639b19251a14610293578063ac4fec21146102ef578063d936547e1461030d575b600080fd5b61006f610369565b604051808273ffffffffffffffffffffffffffffffffffffffff1673ffffffffffffffffffffffffffffffffffffffff16815260200191505060405180910390f35b610174600480360360408110156100c757600080fd5b8101908080359060200190929190803590602001906401000000008111156100ee57600080fd5b82018360208201111561010057600080fd5b8035906020019184600183028401116401000000008311171561012257600080fd5b91908080601f016020809104026020016040519081016040528093929190818152602001838380828437600081840152601f19601f820116905080830192505050505050509192919290505050610393565b604051808273ffffffffffffffffffffffffffffffffffffffff1673ffffffffffffffffffffffffffffffffffffffff16815260200191505060405180910390f35b610279600480360360408110156101cc57600080fd5b8101908080359060200190929190803590602001906401000000008111156101f357600080fd5b82018360208201111561020557600080fd5b8035906020019184600183028401116401000000008311171561022757600080fd5b91908080601f016020809104026020016040519081016040528093929190818152602001838380828437600081840152601f19601f8201169050808301925050505050505091929192905050506104c3565b604051808215151515815260200191505060405180910390f35b6102d5600480360360208110156102a957600080fd5b81019080803573ffffffffffffffffffffffffffffffffffffffff169060200190929190505050610522565b604051808215151515815260200191505060405180910390f35b6102f7610577565b6040518082815260200191505060405180910390f35b61034f6004803603602081101561032357600080fd5b81019080803573ffffffffffffffffffffffffffffffffffffffff16906020019092919050505061065f565b604051808215151515815260200191505060405180910390f35b6000600160009054906101000a900473ffffffffffffffffffffffffffffffffffffffff16905090565b60008060008060418551146103ae57600093505050506104bd565b6020850151925060408501519150606085015160001a9050601b8160ff1610156103d957601b810190505b601b8160ff16141580156103f15750601c8160ff1614155b1561040257600093505050506104bd565b60018660405160200180807f19457468657265756d205369676e6564204d6573736167653a0a333200000000815250601c018281526020019150506040516020818303038152906040528051906020012082858560405160008152602001604052604051808581526020018460ff1660ff1681526020018381526020018281526020019450505050506020604051602081039080840390855afa1580156104ad573d6000803e3d6000fd5b5050506020604051035193505050505b92915050565b60008060006104d28585610393565b73ffffffffffffffffffffffffffffffffffffffff1673ffffffffffffffffffffffffffffffffffffffff16815260200190815260200160002060009054906101000a900460ff16905092915050565b60008060008373ffffffffffffffffffffffffffffffffffffffff1673ffffffffffffffffffffffffffffffffffffffff16815260200190815260200160002060009054906101000a900460ff169050919050565b600080600160009054906101000a900473ffffffffffffffffffffffffffffffffffffffff1673ffffffffffffffffffffffffffffffffffffffff1663f2fb2120336040518263ffffffff1660e01b8152600401808273ffffffffffffffffffffffffffffffffffffffff1673ffffffffffffffffffffffffffffffffffffffff168152602001915050602060405180830381600087803b15801561061b57600080fd5b505af115801561062f573d6000803e3d6000fd5b505050506040513d602081101561064557600080fd5b810190808051906020019092919050505090508091505090565b60006020528060005260406000206000915054906101000a900460ff168156fea264697066735822122016bb1e0a6dd1ed62f789d270e1ff9680287f1a550c810476f438d3173b56073164736f6c63430006020033",
  "source": "pragma solidity >=0.6.0;\r\n\r\nimport \"./IExerciceSolution.sol\";\r\nimport \"./NFT_td9.sol\";\r\n\r\ncontract ExerciceSolution {\r\n    mapping(address => bool) public whitelisted;\r\n    NFT_td9 nft;\r\n\r\n    constructor(NFT_td9 _nft) public {\r\n        nft = _nft;\r\n        whitelisted[msg.sender] = true;\r\n\t}\r\n\r\n\tfunction ERC721Address() public returns(address) {\r\n        return address(nft);\r\n    }\r\n\r\n\tfunction mintATokenForMe() public returns(uint256) {\r\n        uint256 newItemId = nft.awardItem(msg.sender);\r\n        return newItemId;\r\n    }\r\n\r\n    function whitelist(address _signer) public returns (bool) {\r\n        return whitelisted[_signer];\r\n    }\r\n\r\n    function signerIsWhitelisted(bytes32 _hash, bytes memory _signature) public returns (bool) {\r\n        return whitelisted[getAddressFromSignature(_hash, _signature)];\r\n    }\r\n\r\n    function getAddressFromSignature(bytes32 _hash, bytes memory _signature) public returns (address) {\r\n        bytes32 r;\r\n        bytes32 s;\r\n        uint8 v;\r\n        // Check the signature length\r\n        if (_signature.length != 65) {\r\n            return address(0);\r\n        }\r\n        // Divide the signature in r, s and v variables\r\n        // ecrecover takes the signature parameters, and the only way to get them\r\n        // currently is to use assembly.\r\n        // solium-disable-next-line security/no-inline-assembly\r\n        assembly {\r\n            r := mload(add(_signature, 32))\r\n            s := mload(add(_signature, 64))\r\n            v := byte(0, mload(add(_signature, 96)))\r\n        }\r\n        // Version of signature should be 27 or 28, but 0 and 1 are also possible versions\r\n        if (v < 27) {\r\n            v += 27;\r\n        }\r\n        // If the version is correct return the signer address\r\n        if (v != 27 && v != 28) {\r\n            return address(0);\r\n        } else {\r\n            // solium-disable-next-line arg-overflow\r\n            return ecrecover(keccak256(\r\n                abi.encodePacked(\"\\x19Ethereum Signed Message:\\n32\", _hash)\r\n                ), v, r, s);\r\n        }\r\n    }\r\n\r\n}",
  "sourcePath": "C:\\Users\\laith\\OneDrive\\Bureau\\Informatique\\GitHub\\_SHARED\\signatures-101\\contracts\\ExerciceSolution.sol",
  "compiler": {
    "name": "solc",
    "version": "0.6.2+commit.bacdbe57.Emscripten.clang"
  },
  "schemaVersion": "3.4.3",
  "updatedAt": "2021-12-31T12:54:43.189Z",
  "networkType": "ethereum",
  "devdoc": {
    "methods": {}
  },
  "userdoc": {
    "methods": {}
  }
}