{
  "contractName": "ExerciceSolution",
  "abi": [
    {
      "inputs": [
        {
          "internalType": "contract NFT_td9",
          "name": "_nft",
          "type": "address"
        }
      ],
      "stateMutability": "nonpayable",
      "type": "constructor"
    },
    {
      "inputs": [
        {
          "internalType": "address",
          "name": "",
          "type": "address"
        }
      ],
      "name": "whitelisted",
      "outputs": [
        {
          "internalType": "bool",
          "name": "",
          "type": "bool"
        }
      ],
      "stateMutability": "view",
      "type": "function",
      "constant": true
    },
    {
      "inputs": [],
      "name": "ERC721Address",
      "outputs": [
        {
          "internalType": "address",
          "name": "",
          "type": "address"
        }
      ],
      "stateMutability": "nonpayable",
      "type": "function"
    },
    {
      "inputs": [],
      "name": "mintATokenForMe",
      "outputs": [
        {
          "internalType": "uint256",
          "name": "",
          "type": "uint256"
        }
      ],
      "stateMutability": "nonpayable",
      "type": "function"
    },
    {
      "inputs": [
        {
          "internalType": "address",
          "name": "_signer",
          "type": "address"
        }
      ],
      "name": "whitelist",
      "outputs": [
        {
          "internalType": "bool",
          "name": "",
          "type": "bool"
        }
      ],
      "stateMutability": "nonpayable",
      "type": "function"
    },
    {
      "inputs": [
        {
          "internalType": "bytes32",
          "name": "_hash",
          "type": "bytes32"
        },
        {
          "internalType": "bytes",
          "name": "_signature",
          "type": "bytes"
        }
      ],
      "name": "signerIsWhitelisted",
      "outputs": [
        {
          "internalType": "bool",
          "name": "",
          "type": "bool"
        }
      ],
      "stateMutability": "nonpayable",
      "type": "function"
    },
    {
      "inputs": [
        {
          "internalType": "bytes",
          "name": "_signature",
          "type": "bytes"
        }
      ],
      "name": "mintATokenForMeWithASignature",
      "outputs": [
        {
          "internalType": "uint256",
          "name": "",
          "type": "uint256"
        }
      ],
      "stateMutability": "nonpayable",
      "type": "function"
    },
    {
      "inputs": [
        {
          "internalType": "bytes32",
          "name": "_hash",
          "type": "bytes32"
        },
        {
          "internalType": "bytes",
          "name": "_signature",
          "type": "bytes"
        }
      ],
      "name": "getAddressFromSignature",
      "outputs": [
        {
          "internalType": "address",
          "name": "",
          "type": "address"
        }
      ],
      "stateMutability": "nonpayable",
      "type": "function"
    }
  ],
  "bytecode": "0x608060405234801561001057600080fd5b50604051610a16380380610a168339818101604052602081101561003357600080fd5b810190808051906020019092919050505080600160006101000a81548173ffffffffffffffffffffffffffffffffffffffff021916908373ffffffffffffffffffffffffffffffffffffffff16021790555060016000803373ffffffffffffffffffffffffffffffffffffffff1673ffffffffffffffffffffffffffffffffffffffff16815260200190815260200160002060006101000a81548160ff0219169083151502179055505061092a806100ec6000396000f3fe608060405234801561001057600080fd5b506004361061007d5760003560e01c80639a9a291f1161005b5780639a9a291f146102ae5780639b19251a1461037d578063ac4fec21146103d9578063d936547e146103f75761007d565b8063574490cd1461008257806379d33606146100cc5780637d851a13146101d1575b600080fd5b61008a610453565b604051808273ffffffffffffffffffffffffffffffffffffffff1673ffffffffffffffffffffffffffffffffffffffff16815260200191505060405180910390f35b61018f600480360360408110156100e257600080fd5b81019080803590602001909291908035906020019064010000000081111561010957600080fd5b82018360208201111561011b57600080fd5b8035906020019184600183028401116401000000008311171561013d57600080fd5b91908080601f016020809104026020016040519081016040528093929190818152602001838380828437600081840152601f19601f82011690508083019250505050505050919291929050505061047d565b604051808273ffffffffffffffffffffffffffffffffffffffff1673ffffffffffffffffffffffffffffffffffffffff16815260200191505060405180910390f35b610294600480360360408110156101e757600080fd5b81019080803590602001909291908035906020019064010000000081111561020e57600080fd5b82018360208201111561022057600080fd5b8035906020019184600183028401116401000000008311171561024257600080fd5b91908080601f016020809104026020016040519081016040528093929190818152602001838380828437600081840152601f19601f8201169050808301925050505050505091929192905050506105ad565b604051808215151515815260200191505060405180910390f35b610367600480360360208110156102c457600080fd5b81019080803590602001906401000000008111156102e157600080fd5b8201836020820111156102f357600080fd5b8035906020019184600183028401116401000000008311171561031557600080fd5b91908080601f016020809104026020016040519081016040528093929190818152602001838380828437600081840152601f19601f82011690508083019250505050505050919291929050505061060c565b6040518082815260200191505060405180910390f35b6103bf6004803603602081101561039357600080fd5b81019080803573ffffffffffffffffffffffffffffffffffffffff169060200190929190505050610766565b604051808215151515815260200191505060405180910390f35b6103e16107bb565b6040518082815260200191505060405180910390f35b6104396004803603602081101561040d57600080fd5b81019080803573ffffffffffffffffffffffffffffffffffffffff1690602001909291905050506108a3565b604051808215151515815260200191505060405180910390f35b6000600160009054906101000a900473ffffffffffffffffffffffffffffffffffffffff16905090565b600080600080604185511461049857600093505050506105a7565b6020850151925060408501519150606085015160001a9050601b8160ff1610156104c357601b810190505b601b8160ff16141580156104db5750601c8160ff1614155b156104ec57600093505050506105a7565b60018660405160200180807f19457468657265756d205369676e6564204d6573736167653a0a333200000000815250601c018281526020019150506040516020818303038152906040528051906020012082858560405160008152602001604052604051808581526020018460ff1660ff1681526020018381526020018281526020019450505050506020604051602081039080840390855afa158015610597573d6000803e3d6000fd5b5050506020604051035193505050505b92915050565b60008060006105bc858561047d565b73ffffffffffffffffffffffffffffffffffffffff1673ffffffffffffffffffffffffffffffffffffffff16815260200190815260200160002060009054906101000a900460ff16905092915050565b6000803332600160009054906101000a900473ffffffffffffffffffffffffffffffffffffffff16604051602001808473ffffffffffffffffffffffffffffffffffffffff1673ffffffffffffffffffffffffffffffffffffffff1660601b81526014018373ffffffffffffffffffffffffffffffffffffffff1673ffffffffffffffffffffffffffffffffffffffff1660601b81526014018273ffffffffffffffffffffffffffffffffffffffff1673ffffffffffffffffffffffffffffffffffffffff1660601b8152601401935050505060405160208183030381529060405280519060200120905061070181846105ad565b610756576040517f08c379a00000000000000000000000000000000000000000000000000000000081526004018080602001828103825260318152602001806108c46031913960400191505060405180910390fd5b61075e6107bb565b915050919050565b60008060008373ffffffffffffffffffffffffffffffffffffffff1673ffffffffffffffffffffffffffffffffffffffff16815260200190815260200160002060009054906101000a900460ff169050919050565b600080600160009054906101000a900473ffffffffffffffffffffffffffffffffffffffff1673ffffffffffffffffffffffffffffffffffffffff1663f2fb2120336040518263ffffffff1660e01b8152600401808273ffffffffffffffffffffffffffffffffffffffff1673ffffffffffffffffffffffffffffffffffffffff168152602001915050602060405180830381600087803b15801561085f57600080fd5b505af1158015610873573d6000803e3d6000fd5b505050506040513d602081101561088957600080fd5b810190808051906020019092919050505090508091505090565b60006020528060005260406000206000915054906101000a900460ff168156fe7369676e6174757265206973206e6f742070726f766964656420627920616e20617574686f72697a6564206d696e746572a26469706673582212200fb65a0bf9fc27abafc1c82747087c28b03ad38cb475f9c391f8b66de2d138c064736f6c63430006020033",
  "source": "pragma solidity >=0.6.0;\r\n\r\nimport \"./IExerciceSolution.sol\";\r\nimport \"./NFT_td9.sol\";\r\n\r\ncontract ExerciceSolution {\r\n    mapping(address => bool) public whitelisted;\r\n    NFT_td9 nft;\r\n\r\n    constructor(NFT_td9 _nft) public {\r\n        nft = _nft;\r\n        whitelisted[msg.sender] = true;\r\n\t}\r\n\r\n\tfunction ERC721Address() public returns(address) {\r\n        return address(nft);\r\n    }\r\n\r\n\tfunction mintATokenForMe() public returns(uint256) {\r\n        uint256 newItemId = nft.awardItem(msg.sender);\r\n        return newItemId;\r\n    }\r\n\r\n    function whitelist(address _signer) public returns (bool) {\r\n        return whitelisted[_signer];\r\n    }\r\n\r\n    function signerIsWhitelisted(bytes32 _hash, bytes memory _signature) public returns (bool) {\r\n        return whitelisted[getAddressFromSignature(_hash, _signature)];\r\n    }\r\n\r\n    function mintATokenForMeWithASignature(bytes memory _signature) public returns (uint256) {\r\n        bytes32 expectedSignedData = keccak256(abi.encodePacked(msg.sender, tx.origin, address(nft)));\r\n        require(signerIsWhitelisted(expectedSignedData, _signature), \"signature is not provided by an authorized minter\");\r\n        return mintATokenForMe();\r\n    }\r\n\r\n    function getAddressFromSignature(bytes32 _hash, bytes memory _signature) public returns (address) {\r\n        bytes32 r;\r\n        bytes32 s;\r\n        uint8 v;\r\n        // Check the signature length\r\n        if (_signature.length != 65) {\r\n            return address(0);\r\n        }\r\n        // Divide the signature in r, s and v variables\r\n        // ecrecover takes the signature parameters, and the only way to get them\r\n        // currently is to use assembly.\r\n        // solium-disable-next-line security/no-inline-assembly\r\n        assembly {\r\n            r := mload(add(_signature, 32))\r\n            s := mload(add(_signature, 64))\r\n            v := byte(0, mload(add(_signature, 96)))\r\n        }\r\n        // Version of signature should be 27 or 28, but 0 and 1 are also possible versions\r\n        if (v < 27) {\r\n            v += 27;\r\n        }\r\n        // If the version is correct return the signer address\r\n        if (v != 27 && v != 28) {\r\n            return address(0);\r\n        } else {\r\n            // solium-disable-next-line arg-overflow\r\n            return ecrecover(keccak256(\r\n                abi.encodePacked(\"\\x19Ethereum Signed Message:\\n32\", _hash)\r\n                ), v, r, s);\r\n        }\r\n    }\r\n\r\n}",
  "sourcePath": "C:\\Users\\laith\\OneDrive\\Bureau\\Informatique\\GitHub\\_SHARED\\signatures-101\\contracts\\ExerciceSolution.sol",
  "compiler": {
    "name": "solc",
    "version": "0.6.2+commit.bacdbe57.Emscripten.clang"
  },
  "schemaVersion": "3.4.3",
  "updatedAt": "2022-01-15T20:31:10.016Z",
  "networkType": "ethereum",
  "devdoc": {
    "methods": {}
  },
  "userdoc": {
    "methods": {}
  }
}